S00C0000636F64652E737265637D
S11300000C942A000C9447000C9447000C9447006D
S11300100C9447000C9447000C9447000C94470040
S11300200C9447000C9447000C9447000C94470030
S11300300C9447000C9447000C9447000C94470020
S11300400C9447000C9447000C9447000C94470010
S11300500C94470011241FBECFE5D4E0DEBFCDBF12
S113006010E0A0E6B0E0E0E6F8E002C005900D92F2
S1130070AE37B107D9F720E0AEE7B0E001C01D927A
S1130080AC38B207E1F70E942D020C942E040C94B4
S1130090000085BB88B38F7E88BB88B38F7D88BB07
S11300A088B3806488BB000088B38F7B88BB8DEEE7
S11300B092E00197F1F700C00000089585BB88B372
S11300C0806188BB88B38F7D88BB88B3806488BB1C
S11300D0000088B38F7B88BB89EF90E00197F1F72C
S11300E000C0000008958FEF87BB84BB87E893E1CD
S11300F00197F1F700C0000088E30E9449008CE0FA
S11301000E94490080E80E94490008950F931F93BC
S1130110CF93DF938C01C0E0D0E003C00E945E0067
S11301202196F801EC0FFD1F80818111F7CFDF913B
S1130130CF911F910F910895CF93DF93EA0181111D
S113014008C0603130F4862F8F7080680E944900A7
S113015009C0813039F4603128F4862F8F70806CA7
S11301600E944900CE010E948600DF91CF9108953C
S113017081E00E94490080E80E9449000895CF93DD
S1130180DF93CDB7DEB760970FB6F894DEBF0FBE2E
S1130190CDBF4AE0BE016F5F7F4F90E00E94F9033C
S11301A0CE0101960E94860060960FB6F894DEBFD9
S11301B00FBECDBFDF91CF910895811108C060318A
S11301C030F4862F8F7080680E9449000895813032
S11301D039F4603128F4862F8F70806C0E944900B6
S11301E0089517B883E886B9089597B1907E97B9B2
S11301F097B1892B87B986B1806486B9349BFECFC9
S113020086B1806186B984B195B1089597B3986039
S113021097BB8CBF81E683BF089597B3926097BB69
S113022097B3946097BB92E098BB90E00E9406015C
S11302300895CF92DF92EF92FF9280E00E94F50042
S113024090938B0080938A0060918A0070918B0058
S1130250CB01880F991F880F991F680F791F072EEC
S1130260000C880B990B0E94D70220E030EC4FE77A
S113027054E40E94340220E030E048EC52E40E944E
S11302808C036B017C0160938600709387008093DC
S11302908800909389002AE939E949ED5FE30E94D7
S11302A08C03609382007093830080938400909306
S11302B0850020E030E04FE753E40E94340220E060
S11302C030E04DE454E40E948C0320E030E040E24E
S11302D051E40E94340260937E0070937F00809307
S11302E080009093810020E030E048EC52E4C701A4
S11302F0B6010E94870318164CF562E081E00E9463
S1130300DD0080E690E00E9486006AE081E00E94C1
S1130310DD0084E690E00E94860046E650E065E059
S113032080E00E949C0046E650E066E081E00E9486
S11303309C0046E650E06BE080E00E949C0046E6AC
S113034050E06BE081E00E949C0032C020E030E08D
S113035048EC52E4C701B6010E942F02181644F17A
S113036062E081E00E94DD0080E690E00E94860069
S113037069E081E00E94DD0084E690E00E9486004E
S113038046E650E065E080E00E949C0046E650E0CE
S113039065E081E00E949C0046E650E06BE080E06E
S11303A00E949C0046E650E06AE081E00E949C00C6
S11303B0FF90EF90DF90CF9008950E94730088E63D
S11303C090E00E94860080EC0E94490060E081E099
S11303D00E94DD0060917E0070917F00809180001A
S11303E0909181000E94A602862F0E94BF0067E0C0
S11303F081E00E94DD006091860070918700809109
S11304008800909189000E94A602862F0E94BF0056
S11304100E94190144E750E06CE080E00E949C00D7
S113042049E750E06CE081E00E949C0008950E943E
S113043073000E94F1000E94B8000E94DD016091E7
S113044082007091830080918400909185000E94C5
S1130450A602862F0E940D01F0CF0E9417020E946F
S1130460120308F481E008950E9448020C944D039D
S11304700E94460358F00E943F0340F029F45F3F76
S113048029F00C94360351110C9481030C943C0311
S11304900E945E0368F39923B1F3552391F3951BEE
S11304A0550BBB27AA2762177307840738F09F5F91
S11304B05F4F220F331F441FAA1FA9F335D00E2EFE
S11304C03AF0E0E832D091505040E695001CCAF76B
S11304D02BD0FE2F29D0660F771F881FBB1F26172E
S11304E037074807AB07B0E809F0BB0B802DBF0105
S11304F0FF2793585F4F3AF09E3F510578F00C94D4
S113050036030C9481035F3FE4F3983ED4F386955D
S113051077956795B795F7959F5FC9F7880F911DF4
S11305209695879597F90895E1E0660F771F881FE0
S1130530BB1F621773078407BA0720F0621B730B93
S1130540840BBA0BEE1F88F7E09508950E946603AA
S113055088F09F5798F0B92F9927B751B0F0E1F080
S1130560660F771F881F991F1AF0BA95C9F714C030
S1130570B13091F00E948003B1E008950C9480039F
S1130580672F782F8827B85F39F0B93FCCF3869569
S113059077956795B395D9F73EF4909580957095C6
S11305A061957F4F8F4F9F4F0895E89409C097FB43
S11305B03EF490958095709561957F4F8F4F9F4F36
S11305C09923A9F0F92F96E9BB279395F69587957A
S11305D077956795B795F111F8CFFAF4BB0F11F43D
S11305E060FF1BC06F5F7F4F8F4F9F4F16C08823E4
S11305F011F096E911C0772321F09EE8872F762F1A
S113060005C0662371F096E8862F70E060E02AF05A
S11306109A95660F771F881FDAF7880F9695879546
S113062097F90895990F0008550FAA0BE0E8FEEF1B
S113063016161706E807F907C0F012161306E407A2
S1130640F50798F0621B730B840B950B39F40A269B
S113065061F0232B242B252B21F408950A2609F479
S1130660A140A6958FEF811D811D089597F99F677D
S113067080E870E060E008959FEF80EC0895002426
S11306800A941616170618060906089500240A94F3
S113069012161306140605060895092E0394000C79
S11306A011F4882352F0BB0F40F4BF2B11F460FF08
S11306B004C06F5F7F4F8F4F9F4F089557FD905831
S11306C0440F551F59F05F3F71F04795880F97FB12
S11306D0991F61F09F3F79F08795089512161306CC
S11306E01406551FF2CF4695F1DF08C016161706FB
S11306F01806991FF1CF8695710561050894089530
S1130700E894BB2766277727CB0197F908950E94C1
S1130710120308F48FEF08950E949F030C944D0375
S11307200E943F0338F00E94460320F0952311F005
S11307300C9436030C943C0311240C9481030E9402
S11307405E0370F3959FC1F3950F50E0551F629FB0
S1130750F001729FBB27F00DB11D639FAA27F00D16
S1130760B11DAA1F649F6627B00DA11D661F829F3D
S11307702227B00DA11D621F739FB00DA11D621F22
S1130780839FA00D611D221F749F3327A00D611D3F
S1130790231F849F600D211D822F762F6A2F112421
S11307A09F5750409AF0F1F088234AF0EE0FFF1F54
S11307B0BB1F661F771F881F91505040A9F79E3FAB
S11307C0510580F00C9436030C9481035F3FE4F3ED
S11307D0983ED4F3869577956795B795F795E79501
S11307E09F5FC1F7FE2B880F911D9695879597F90A
S11307F00895BB274A3031F4992322F4BDE2909541
S113080081959F4F0C940504BB27FB015527AA270C
S1130810880F991FAA1FA41710F0A41B8395505189
S1130820B9F7A05DAA3308F0A95DA193009779F701
S1130830B111B1931192CB010C941E04DC01FC01A3
S1130840672F71917723E1F7329704C07C916D9300
S113085070836291AE17BF07C8F30895F894FFCF71
S113086072706D0043007C00535831302020546571
S11108706D702000436F6F6C00537973740039
S9030000FC
